{
    "contractName": "EventLog",
    "abi": [
        {
            "inputs": [],
            "stateMutability": "nonpayable",
            "type": "constructor"
        },
        {
            "anonymous": false,
            "inputs": [
                {
                    "indexed": false,
                    "internalType": "uint256",
                    "name": "signatureId",
                    "type": "uint256"
                },
                {
                    "indexed": true,
                    "internalType": "uint256",
                    "name": "id",
                    "type": "uint256"
                },
                {
                    "indexed": false,
                    "internalType": "string",
                    "name": "log",
                    "type": "string"
                },
                {
                    "indexed": false,
                    "internalType": "address",
                    "name": "sender",
                    "type": "address"
                }
            ],
            "name": "Log",
            "type": "event"
        },
        {
            "inputs": [
                {
                    "internalType": "address",
                    "name": "",
                    "type": "address"
                },
                {
                    "internalType": "uint256",
                    "name": "",
                    "type": "uint256"
                }
            ],
            "name": "_nonce",
            "outputs": [
                {
                    "internalType": "uint256",
                    "name": "",
                    "type": "uint256"
                }
            ],
            "stateMutability": "view",
            "type": "function"
        },
        {
            "inputs": [
                {
                    "internalType": "uint256",
                    "name": "signatureId",
                    "type": "uint256"
                },
                {
                    "internalType": "uint256",
                    "name": "id",
                    "type": "uint256"
                },
                {
                    "internalType": "string",
                    "name": "log",
                    "type": "string"
                }
            ],
            "name": "setLog",
            "outputs": [],
            "stateMutability": "nonpayable",
            "type": "function"
        },
        {
            "inputs": [
                {
                    "internalType": "uint256",
                    "name": "signatureId",
                    "type": "uint256"
                },
                {
                    "internalType": "uint256",
                    "name": "id",
                    "type": "uint256"
                },
                {
                    "internalType": "string",
                    "name": "log",
                    "type": "string"
                },
                {
                    "internalType": "address",
                    "name": "from",
                    "type": "address"
                },
                {
                    "internalType": "bytes",
                    "name": "sig",
                    "type": "bytes"
                },
                {
                    "internalType": "bytes",
                    "name": "friendlyHash",
                    "type": "bytes"
                }
            ],
            "name": "setLogContent",
            "outputs": [],
            "stateMutability": "nonpayable",
            "type": "function"
        }
    ],
    "bytecode": "608060405234801561001057600080fd5b50600080546001600160a01b0319163317905561072b806100326000396000f3fe608060405234801561001057600080fd5b50600436106100415760003560e01c8063022fd0ae1461004657806367f139571461005b578063febcc6801461006e575b600080fd5b6100596100543660046104c4565b6100ab565b005b610059610069366004610474565b610182565b61009961007c36600461044a565b600160209081526000928352604080842090915290825290205481565b60405190815260200160405180910390f35b6000546001600160a01b031633146101005760405162461bcd60e51b815260206004820152601360248201527221b0b63632b91034b9903737ba1037bbb732b960691b60448201526064015b60405180910390fd5b6001600160a01b0383166000908152600160209081526040808320888452825280832054905161014492601960f81b92859230928a918e918e918e918c910161056f565b604051602081830303815290604052805190602001209050600061016a8585848a6101e3565b905061017888888884610286565b5050505050505050565b6000546001600160a01b031633146101d25760405162461bcd60e51b815260206004820152601360248201527221b0b63632b91034b9903737ba1037bbb732b960691b60448201526064016100f7565b6101de83838333610286565b505050565b6000806101f084866102c8565b9050856001600160a01b0316816001600160a01b0316146102485760405162461bcd60e51b81526020600482015260126024820152717369676e6572203c3e206964656e7469747960701b60448201526064016100f7565b6001600160a01b03811660009081526001602090815260408083208684529091528120805491610277836106ae565b90915550909695505050505050565b827f054105b925e684224a9dad6e1d82f2a5a092cce70f1afa8d8f1ed4c42ef086f58584846040516102ba9392919061060e565b60405180910390a250505050565b60008060008084516041146102e3576000935050505061039b565b50505060208201516040830151604184015160ff16601b81101561030f5761030c601b82610659565b90505b8060ff16601b1415801561032757508060ff16601c14155b15610338576000935050505061039b565b60408051600081526020810180835288905260ff831691810191909152606081018490526080810183905260019060a0016020604051602081039080840390855afa15801561038b573d6000803e3d6000fd5b5050506020604051035193505050505b92915050565b80356001600160a01b03811681146103b857600080fd5b919050565b600082601f8301126103ce57600080fd5b813567ffffffffffffffff808211156103e9576103e96106df565b604051601f8301601f19908116603f01168101908282118183101715610411576104116106df565b8160405283815286602085880101111561042a57600080fd5b836020870160208301376000602085830101528094505050505092915050565b6000806040838503121561045d57600080fd5b610466836103a1565b946020939093013593505050565b60008060006060848603121561048957600080fd5b8335925060208401359150604084013567ffffffffffffffff8111156104ae57600080fd5b6104ba868287016103bd565b9150509250925092565b60008060008060008060c087890312156104dd57600080fd5b8635955060208701359450604087013567ffffffffffffffff8082111561050357600080fd5b61050f8a838b016103bd565b955061051d60608a016103a1565b9450608089013591508082111561053357600080fd5b61053f8a838b016103bd565b935060a089013591508082111561055557600080fd5b5061056289828a016103bd565b9150509295509295509295565b600060ff60f81b808c168352808b166001840152506bffffffffffffffffffffffff19808a60601b166002840152886016840152808860601b166036840152506c1cd95d131bd9d0dbdb9d195b9d609a1b604a83015285605783015284607783015283516105e481609785016020880161067e565b8351908301906105fb81609784016020880161067e565b016097019b9a5050505050505050505050565b838152606060208201526000835180606084015261063381608085016020880161067e565b6001600160a01b0393909316604083015250601f91909101601f19160160800192915050565b600060ff821660ff84168060ff03821115610676576106766106c9565b019392505050565b60005b83811015610699578181015183820152602001610681565b838111156106a8576000848401525b50505050565b60006000198214156106c2576106c26106c9565b5060010190565b634e487b7160e01b600052601160045260246000fd5b634e487b7160e01b600052604160045260246000fdfea2646970667358221220de437d52c54c3959a797ca6e12c1cfb34c19743ec1572831fade934bdf796fab64736f6c63430008060033",
    "sourcePath": "c:/GitHub/incucai-documentsigner/documentsigner/smart-contracts/src/contracts/EventLog.sol",
    "compiler": {
        "name": "solc",
        "version": "0.8.6+commit.11564f7e"
    },
    "functionHashes": {
        "_nonce(address,uint256)": "febcc680",
        "setLog(uint256,uint256,string)": "67f13957",
        "setLogContent(uint256,uint256,string,address,bytes,bytes)": "022fd0ae"
    },
    "gasEstimates": {
        "creation": {
            "codeDepositCost": "367000",
            "executionCost": "24640",
            "totalCost": "391640"
        },
        "external": {
            "_nonce(address,uint256)": "2622",
            "setLog(uint256,uint256,string)": "infinite",
            "setLogContent(uint256,uint256,string,address,bytes,bytes)": "infinite"
        },
        "internal": {
            "_setLog(uint256,uint256,string memory,address)": "infinite",
            "checkSignature(address,bytes memory,bytes32,uint256)": "infinite",
            "ecrecovery(bytes32,bytes memory)": "infinite"
        }
    }
}